{
  "_format": "hh-sol-artifact-1",
  "contractName": "Vault",
  "sourceName": "contracts/Vault.sol",
  "abi": [
    {
      "inputs": [],
      "stateMutability": "nonpayable",
      "type": "constructor"
    },
    {
      "inputs": [],
      "name": "AccessControlBadConfirmation",
      "type": "error"
    },
    {
      "inputs": [
        {
          "internalType": "address",
          "name": "account",
          "type": "address"
        },
        {
          "internalType": "bytes32",
          "name": "neededRole",
          "type": "bytes32"
        }
      ],
      "name": "AccessControlUnauthorizedAccount",
      "type": "error"
    },
    {
      "inputs": [
        {
          "internalType": "address",
          "name": "target",
          "type": "address"
        }
      ],
      "name": "AddressEmptyCode",
      "type": "error"
    },
    {
      "inputs": [
        {
          "internalType": "address",
          "name": "account",
          "type": "address"
        }
      ],
      "name": "AddressInsufficientBalance",
      "type": "error"
    },
    {
      "inputs": [],
      "name": "FailedInnerCall",
      "type": "error"
    },
    {
      "inputs": [
        {
          "internalType": "address",
          "name": "owner",
          "type": "address"
        }
      ],
      "name": "OwnableInvalidOwner",
      "type": "error"
    },
    {
      "inputs": [
        {
          "internalType": "address",
          "name": "account",
          "type": "address"
        }
      ],
      "name": "OwnableUnauthorizedAccount",
      "type": "error"
    },
    {
      "inputs": [
        {
          "internalType": "address",
          "name": "token",
          "type": "address"
        }
      ],
      "name": "SafeERC20FailedOperation",
      "type": "error"
    },
    {
      "anonymous": false,
      "inputs": [
        {
          "indexed": true,
          "internalType": "address",
          "name": "depositor",
          "type": "address"
        },
        {
          "indexed": false,
          "internalType": "uint256",
          "name": "amount",
          "type": "uint256"
        }
      ],
      "name": "Deposit",
      "type": "event"
    },
    {
      "anonymous": false,
      "inputs": [
        {
          "indexed": true,
          "internalType": "address",
          "name": "previousOwner",
          "type": "address"
        },
        {
          "indexed": true,
          "internalType": "address",
          "name": "newOwner",
          "type": "address"
        }
      ],
      "name": "OwnershipTransferred",
      "type": "event"
    },
    {
      "anonymous": false,
      "inputs": [
        {
          "indexed": true,
          "internalType": "bytes32",
          "name": "role",
          "type": "bytes32"
        },
        {
          "indexed": true,
          "internalType": "bytes32",
          "name": "previousAdminRole",
          "type": "bytes32"
        },
        {
          "indexed": true,
          "internalType": "bytes32",
          "name": "newAdminRole",
          "type": "bytes32"
        }
      ],
      "name": "RoleAdminChanged",
      "type": "event"
    },
    {
      "anonymous": false,
      "inputs": [
        {
          "indexed": true,
          "internalType": "bytes32",
          "name": "role",
          "type": "bytes32"
        },
        {
          "indexed": true,
          "internalType": "address",
          "name": "account",
          "type": "address"
        },
        {
          "indexed": true,
          "internalType": "address",
          "name": "sender",
          "type": "address"
        }
      ],
      "name": "RoleGranted",
      "type": "event"
    },
    {
      "anonymous": false,
      "inputs": [
        {
          "indexed": true,
          "internalType": "bytes32",
          "name": "role",
          "type": "bytes32"
        },
        {
          "indexed": true,
          "internalType": "address",
          "name": "account",
          "type": "address"
        },
        {
          "indexed": true,
          "internalType": "address",
          "name": "sender",
          "type": "address"
        }
      ],
      "name": "RoleRevoked",
      "type": "event"
    },
    {
      "anonymous": false,
      "inputs": [
        {
          "indexed": true,
          "internalType": "address",
          "name": "to",
          "type": "address"
        },
        {
          "indexed": false,
          "internalType": "uint256",
          "name": "amount",
          "type": "uint256"
        }
      ],
      "name": "Withdraw",
      "type": "event"
    },
    {
      "inputs": [],
      "name": "DEFAULT_ADMIN_ROLE",
      "outputs": [
        {
          "internalType": "bytes32",
          "name": "",
          "type": "bytes32"
        }
      ],
      "stateMutability": "view",
      "type": "function"
    },
    {
      "inputs": [],
      "name": "WITHDRAWER_ROLE",
      "outputs": [
        {
          "internalType": "bytes32",
          "name": "",
          "type": "bytes32"
        }
      ],
      "stateMutability": "view",
      "type": "function"
    },
    {
      "inputs": [
        {
          "internalType": "uint256",
          "name": "_amount",
          "type": "uint256"
        }
      ],
      "name": "deposit",
      "outputs": [],
      "stateMutability": "nonpayable",
      "type": "function"
    },
    {
      "inputs": [
        {
          "internalType": "bytes32",
          "name": "role",
          "type": "bytes32"
        }
      ],
      "name": "getRoleAdmin",
      "outputs": [
        {
          "internalType": "bytes32",
          "name": "",
          "type": "bytes32"
        }
      ],
      "stateMutability": "view",
      "type": "function"
    },
    {
      "inputs": [
        {
          "internalType": "bytes32",
          "name": "role",
          "type": "bytes32"
        },
        {
          "internalType": "address",
          "name": "account",
          "type": "address"
        }
      ],
      "name": "grantRole",
      "outputs": [],
      "stateMutability": "nonpayable",
      "type": "function"
    },
    {
      "inputs": [
        {
          "internalType": "bytes32",
          "name": "role",
          "type": "bytes32"
        },
        {
          "internalType": "address",
          "name": "account",
          "type": "address"
        }
      ],
      "name": "hasRole",
      "outputs": [
        {
          "internalType": "bool",
          "name": "",
          "type": "bool"
        }
      ],
      "stateMutability": "view",
      "type": "function"
    },
    {
      "inputs": [],
      "name": "maxWithdrawAmount",
      "outputs": [
        {
          "internalType": "uint256",
          "name": "",
          "type": "uint256"
        }
      ],
      "stateMutability": "view",
      "type": "function"
    },
    {
      "inputs": [],
      "name": "owner",
      "outputs": [
        {
          "internalType": "address",
          "name": "",
          "type": "address"
        }
      ],
      "stateMutability": "view",
      "type": "function"
    },
    {
      "inputs": [],
      "name": "renounceOwnership",
      "outputs": [],
      "stateMutability": "nonpayable",
      "type": "function"
    },
    {
      "inputs": [
        {
          "internalType": "bytes32",
          "name": "role",
          "type": "bytes32"
        },
        {
          "internalType": "address",
          "name": "callerConfirmation",
          "type": "address"
        }
      ],
      "name": "renounceRole",
      "outputs": [],
      "stateMutability": "nonpayable",
      "type": "function"
    },
    {
      "inputs": [
        {
          "internalType": "bytes32",
          "name": "role",
          "type": "bytes32"
        },
        {
          "internalType": "address",
          "name": "account",
          "type": "address"
        }
      ],
      "name": "revokeRole",
      "outputs": [],
      "stateMutability": "nonpayable",
      "type": "function"
    },
    {
      "inputs": [
        {
          "internalType": "uint256",
          "name": "_max",
          "type": "uint256"
        }
      ],
      "name": "setMaxWithdrawAmount",
      "outputs": [],
      "stateMutability": "nonpayable",
      "type": "function"
    },
    {
      "inputs": [
        {
          "internalType": "contract IERC20",
          "name": "_token",
          "type": "address"
        }
      ],
      "name": "setToken",
      "outputs": [],
      "stateMutability": "nonpayable",
      "type": "function"
    },
    {
      "inputs": [
        {
          "internalType": "bool",
          "name": "_inabled",
          "type": "bool"
        }
      ],
      "name": "setWithdrawEnable",
      "outputs": [],
      "stateMutability": "nonpayable",
      "type": "function"
    },
    {
      "inputs": [
        {
          "internalType": "bytes4",
          "name": "interfaceId",
          "type": "bytes4"
        }
      ],
      "name": "supportsInterface",
      "outputs": [
        {
          "internalType": "bool",
          "name": "",
          "type": "bool"
        }
      ],
      "stateMutability": "view",
      "type": "function"
    },
    {
      "inputs": [
        {
          "internalType": "address",
          "name": "newOwner",
          "type": "address"
        }
      ],
      "name": "transferOwnership",
      "outputs": [],
      "stateMutability": "nonpayable",
      "type": "function"
    },
    {
      "inputs": [
        {
          "internalType": "address",
          "name": "_to",
          "type": "address"
        },
        {
          "internalType": "uint256",
          "name": "_amount",
          "type": "uint256"
        }
      ],
      "name": "withdraw",
      "outputs": [],
      "stateMutability": "nonpayable",
      "type": "function"
    },
    {
      "inputs": [],
      "name": "withdrawEnable",
      "outputs": [
        {
          "internalType": "bool",
          "name": "",
          "type": "bool"
        }
      ],
      "stateMutability": "view",
      "type": "function"
    }
  ],
  "bytecode": "0x60806040523480156200001157600080fd5b5033600073ffffffffffffffffffffffffffffffffffffffff168173ffffffffffffffffffffffffffffffffffffffff1603620000885760006040517f1e4fbdf70000000000000000000000000000000000000000000000000000000081526004016200007f919062000344565b60405180910390fd5b6200009981620000c560201b60201c565b50620000be6000801b620000b26200018960201b60201c565b6200019160201b60201c565b5062000361565b60008060009054906101000a900473ffffffffffffffffffffffffffffffffffffffff169050816000806101000a81548173ffffffffffffffffffffffffffffffffffffffff021916908373ffffffffffffffffffffffffffffffffffffffff1602179055508173ffffffffffffffffffffffffffffffffffffffff168173ffffffffffffffffffffffffffffffffffffffff167f8be0079c531659141344cd1fd0a4f28419497f9722a3daafe3b4186f6b6457e060405160405180910390a35050565b600033905090565b6000620001a583836200029460201b60201c565b6200028957600180600085815260200190815260200160002060000160008473ffffffffffffffffffffffffffffffffffffffff1673ffffffffffffffffffffffffffffffffffffffff16815260200190815260200160002060006101000a81548160ff021916908315150217905550620002256200018960201b60201c565b73ffffffffffffffffffffffffffffffffffffffff168273ffffffffffffffffffffffffffffffffffffffff16847f2f8788117e7eff1d82e926ec794901d17c78024a50270940304540a733656f0d60405160405180910390a4600190506200028e565b600090505b92915050565b60006001600084815260200190815260200160002060000160008373ffffffffffffffffffffffffffffffffffffffff1673ffffffffffffffffffffffffffffffffffffffff16815260200190815260200160002060009054906101000a900460ff16905092915050565b600073ffffffffffffffffffffffffffffffffffffffff82169050919050565b60006200032c82620002ff565b9050919050565b6200033e816200031f565b82525050565b60006020820190506200035b600083018462000333565b92915050565b611aa980620003716000396000f3fe608060405234801561001057600080fd5b50600436106101165760003560e01c806391d14854116100a2578063d547741f11610071578063d547741f146102b9578063df74e028146102d5578063f2fde38b146102f1578063f3fef3a31461030d578063f516440c1461032957610116565b806391d1485414610231578063a217fddf14610261578063b5b68afe1461027f578063b6b55f251461029d57610116565b806336568abe116100e957806336568abe146101b3578063715018a6146101cf578063827a560b146101d957806385f438c1146101f55780638da5cb5b1461021357610116565b806301ffc9a71461011b578063144fa6d71461014b578063248a9ca3146101675780632f2ff15d14610197575b600080fd5b610135600480360381019061013091906112cf565b610347565b6040516101429190611317565b60405180910390f35b610165600480360381019061016091906113a2565b6103c1565b005b610181600480360381019061017c9190611405565b61040d565b60405161018e9190611441565b60405180910390f35b6101b160048036038101906101ac9190611488565b61042d565b005b6101cd60048036038101906101c89190611488565b61044f565b005b6101d76104ca565b005b6101f360048036038101906101ee91906114f4565b6104de565b005b6101fd610503565b60405161020a9190611441565b60405180910390f35b61021b610527565b6040516102289190611530565b60405180910390f35b61024b60048036038101906102469190611488565b610550565b6040516102589190611317565b60405180910390f35b6102696105bb565b6040516102769190611441565b60405180910390f35b6102876105c2565b6040516102949190611317565b60405180910390f35b6102b760048036038101906102b29190611581565b6105d5565b005b6102d360048036038101906102ce9190611488565b6107c3565b005b6102ef60048036038101906102ea9190611581565b6107e5565b005b61030b600480360381019061030691906115ae565b6107f7565b005b610327600480360381019061032291906115db565b61087d565b005b610331610b96565b60405161033e919061162a565b60405180910390f35b60007f7965db0b000000000000000000000000000000000000000000000000000000007bffffffffffffffffffffffffffffffffffffffffffffffffffffffff1916827bffffffffffffffffffffffffffffffffffffffffffffffffffffffff191614806103ba57506103b982610b9c565b5b9050919050565b6103c9610c06565b80600260006101000a81548173ffffffffffffffffffffffffffffffffffffffff021916908373ffffffffffffffffffffffffffffffffffffffff16021790555050565b600060016000838152602001908152602001600020600101549050919050565b6104368261040d565b61043f81610c8d565b6104498383610ca1565b50505050565b610457610d92565b73ffffffffffffffffffffffffffffffffffffffff168173ffffffffffffffffffffffffffffffffffffffff16146104bb576040517f6697b23200000000000000000000000000000000000000000000000000000000815260040160405180910390fd5b6104c58282610d9a565b505050565b6104d2610c06565b6104dc6000610e8d565b565b6104e6610c06565b80600460006101000a81548160ff02191690831515021790555050565b7f10dac8c06a04bec0b551627dad28bc00d6516b0caacd1c7b345fcdb5211334e481565b60008060009054906101000a900473ffffffffffffffffffffffffffffffffffffffff16905090565b60006001600084815260200190815260200160002060000160008373ffffffffffffffffffffffffffffffffffffffff1673ffffffffffffffffffffffffffffffffffffffff16815260200190815260200160002060009054906101000a900460ff16905092915050565b6000801b81565b600460009054906101000a900460ff1681565b80600260009054906101000a900473ffffffffffffffffffffffffffffffffffffffff1673ffffffffffffffffffffffffffffffffffffffff166370a08231336040518263ffffffff1660e01b81526004016106319190611530565b602060405180830381865afa15801561064e573d6000803e3d6000fd5b505050506040513d601f19601f82011682018060405250810190610672919061165a565b10156106b3576040517f08c379a00000000000000000000000000000000000000000000000000000000081526004016106aa906116e4565b60405180910390fd5b600073ffffffffffffffffffffffffffffffffffffffff16600260009054906101000a900473ffffffffffffffffffffffffffffffffffffffff1673ffffffffffffffffffffffffffffffffffffffff1603610744576040517f08c379a000000000000000000000000000000000000000000000000000000000815260040161073b90611750565b60405180910390fd5b610772600260009054906101000a900473ffffffffffffffffffffffffffffffffffffffff16333084610f51565b3373ffffffffffffffffffffffffffffffffffffffff167fe1fffcc4923d04b559f4d29a8bfc6cda04eb5b0d3c460751c2402c5c5cc9109c826040516107b8919061162a565b60405180910390a250565b6107cc8261040d565b6107d581610c8d565b6107df8383610d9a565b50505050565b6107ed610c06565b8060038190555050565b6107ff610c06565b600073ffffffffffffffffffffffffffffffffffffffff168173ffffffffffffffffffffffffffffffffffffffff16036108715760006040517f1e4fbdf70000000000000000000000000000000000000000000000000000000081526004016108689190611530565b60405180910390fd5b61087a81610e8d565b50565b610885610d92565b73ffffffffffffffffffffffffffffffffffffffff166108a3610527565b73ffffffffffffffffffffffffffffffffffffffff1614806108f257506108f17f10dac8c06a04bec0b551627dad28bc00d6516b0caacd1c7b345fcdb5211334e46108ec610d92565b610550565b5b610931576040517f08c379a0000000000000000000000000000000000000000000000000000000008152600401610928906117bc565b60405180910390fd5b600460009054906101000a900460ff16610980576040517f08c379a000000000000000000000000000000000000000000000000000000000815260040161097790611828565b60405180910390fd5b6003548111156109c5576040517f08c379a00000000000000000000000000000000000000000000000000000000081526004016109bc90611894565b60405180910390fd5b600260009054906101000a900473ffffffffffffffffffffffffffffffffffffffff1673ffffffffffffffffffffffffffffffffffffffff166370a08231306040518263ffffffff1660e01b8152600401610a209190611530565b602060405180830381865afa158015610a3d573d6000803e3d6000fd5b505050506040513d601f19601f82011682018060405250810190610a61919061165a565b811115610aa3576040517f08c379a0000000000000000000000000000000000000000000000000000000008152600401610a9a90611900565b60405180910390fd5b600260009054906101000a900473ffffffffffffffffffffffffffffffffffffffff1673ffffffffffffffffffffffffffffffffffffffff1663a9059cbb83836040518363ffffffff1660e01b8152600401610b00929190611920565b6020604051808303816000875af1158015610b1f573d6000803e3d6000fd5b505050506040513d601f19601f82011682018060405250810190610b43919061195e565b508173ffffffffffffffffffffffffffffffffffffffff167f884edad9ce6fa2440d8a54cc123490eb96d2768479d49ff9c7366125a942436482604051610b8a919061162a565b60405180910390a25050565b60035481565b60007f01ffc9a7000000000000000000000000000000000000000000000000000000007bffffffffffffffffffffffffffffffffffffffffffffffffffffffff1916827bffffffffffffffffffffffffffffffffffffffffffffffffffffffff1916149050919050565b610c0e610d92565b73ffffffffffffffffffffffffffffffffffffffff16610c2c610527565b73ffffffffffffffffffffffffffffffffffffffff1614610c8b57610c4f610d92565b6040517f118cdaa7000000000000000000000000000000000000000000000000000000008152600401610c829190611530565b60405180910390fd5b565b610c9e81610c99610d92565b610fd3565b50565b6000610cad8383610550565b610d8757600180600085815260200190815260200160002060000160008473ffffffffffffffffffffffffffffffffffffffff1673ffffffffffffffffffffffffffffffffffffffff16815260200190815260200160002060006101000a81548160ff021916908315150217905550610d24610d92565b73ffffffffffffffffffffffffffffffffffffffff168273ffffffffffffffffffffffffffffffffffffffff16847f2f8788117e7eff1d82e926ec794901d17c78024a50270940304540a733656f0d60405160405180910390a460019050610d8c565b600090505b92915050565b600033905090565b6000610da68383610550565b15610e825760006001600085815260200190815260200160002060000160008473ffffffffffffffffffffffffffffffffffffffff1673ffffffffffffffffffffffffffffffffffffffff16815260200190815260200160002060006101000a81548160ff021916908315150217905550610e1f610d92565b73ffffffffffffffffffffffffffffffffffffffff168273ffffffffffffffffffffffffffffffffffffffff16847ff6391f5c32d9c69d2a47ea670b442974b53935d1edc7fd64eb21e047a839171b60405160405180910390a460019050610e87565b600090505b92915050565b60008060009054906101000a900473ffffffffffffffffffffffffffffffffffffffff169050816000806101000a81548173ffffffffffffffffffffffffffffffffffffffff021916908373ffffffffffffffffffffffffffffffffffffffff1602179055508173ffffffffffffffffffffffffffffffffffffffff168173ffffffffffffffffffffffffffffffffffffffff167f8be0079c531659141344cd1fd0a4f28419497f9722a3daafe3b4186f6b6457e060405160405180910390a35050565b610fcd848573ffffffffffffffffffffffffffffffffffffffff166323b872dd868686604051602401610f869392919061198b565b604051602081830303815290604052915060e01b6020820180517bffffffffffffffffffffffffffffffffffffffffffffffffffffffff8381831617835250505050611024565b50505050565b610fdd8282610550565b6110205780826040517fe2517d3f0000000000000000000000000000000000000000000000000000000081526004016110179291906119c2565b60405180910390fd5b5050565b600061104f828473ffffffffffffffffffffffffffffffffffffffff166110bb90919063ffffffff16565b90506000815114158015611074575080806020019051810190611072919061195e565b155b156110b657826040517f5274afe70000000000000000000000000000000000000000000000000000000081526004016110ad9190611530565b60405180910390fd5b505050565b60606110c9838360006110d1565b905092915050565b60608147101561111857306040517fcd78605900000000000000000000000000000000000000000000000000000000815260040161110f9190611530565b60405180910390fd5b6000808573ffffffffffffffffffffffffffffffffffffffff1684866040516111419190611a5c565b60006040518083038185875af1925050503d806000811461117e576040519150601f19603f3d011682016040523d82523d6000602084013e611183565b606091505b509150915061119386838361119e565b925050509392505050565b6060826111b3576111ae8261122d565b611225565b600082511480156111db575060008473ffffffffffffffffffffffffffffffffffffffff163b145b1561121d57836040517f9996b3150000000000000000000000000000000000000000000000000000000081526004016112149190611530565b60405180910390fd5b819050611226565b5b9392505050565b6000815111156112405780518082602001fd5b6040517f1425ea4200000000000000000000000000000000000000000000000000000000815260040160405180910390fd5b600080fd5b60007fffffffff0000000000000000000000000000000000000000000000000000000082169050919050565b6112ac81611277565b81146112b757600080fd5b50565b6000813590506112c9816112a3565b92915050565b6000602082840312156112e5576112e4611272565b5b60006112f3848285016112ba565b91505092915050565b60008115159050919050565b611311816112fc565b82525050565b600060208201905061132c6000830184611308565b92915050565b600073ffffffffffffffffffffffffffffffffffffffff82169050919050565b600061135d82611332565b9050919050565b600061136f82611352565b9050919050565b61137f81611364565b811461138a57600080fd5b50565b60008135905061139c81611376565b92915050565b6000602082840312156113b8576113b7611272565b5b60006113c68482850161138d565b91505092915050565b6000819050919050565b6113e2816113cf565b81146113ed57600080fd5b50565b6000813590506113ff816113d9565b92915050565b60006020828403121561141b5761141a611272565b5b6000611429848285016113f0565b91505092915050565b61143b816113cf565b82525050565b60006020820190506114566000830184611432565b92915050565b61146581611352565b811461147057600080fd5b50565b6000813590506114828161145c565b92915050565b6000806040838503121561149f5761149e611272565b5b60006114ad858286016113f0565b92505060206114be85828601611473565b9150509250929050565b6114d1816112fc565b81146114dc57600080fd5b50565b6000813590506114ee816114c8565b92915050565b60006020828403121561150a57611509611272565b5b6000611518848285016114df565b91505092915050565b61152a81611352565b82525050565b60006020820190506115456000830184611521565b92915050565b6000819050919050565b61155e8161154b565b811461156957600080fd5b50565b60008135905061157b81611555565b92915050565b60006020828403121561159757611596611272565b5b60006115a58482850161156c565b91505092915050565b6000602082840312156115c4576115c3611272565b5b60006115d284828501611473565b91505092915050565b600080604083850312156115f2576115f1611272565b5b600061160085828601611473565b92505060206116118582860161156c565b9150509250929050565b6116248161154b565b82525050565b600060208201905061163f600083018461161b565b92915050565b60008151905061165481611555565b92915050565b6000602082840312156116705761166f611272565b5b600061167e84828501611645565b91505092915050565b600082825260208201905092915050565b7f496e73756666696369656e74206163636f756e742062616c616e636500000000600082015250565b60006116ce601c83611687565b91506116d982611698565b602082019050919050565b600060208201905081810360008301526116fd816116c1565b9050919050565b7f546f6b656e206973206e6f742073657400000000000000000000000000000000600082015250565b600061173a601083611687565b915061174582611704565b602082019050919050565b600060208201905081810360008301526117698161172d565b9050919050565b7f43616c6c6572206973206e6f7420612077697468726177657200000000000000600082015250565b60006117a6601983611687565b91506117b182611770565b602082019050919050565b600060208201905081810360008301526117d581611799565b9050919050565b7f7769746864726177206973206e6f7420617661696c61626c6500000000000000600082015250565b6000611812601983611687565b915061181d826117dc565b602082019050919050565b6000602082019050818103600083015261184181611805565b9050919050565b7f457863656564206d6178696d756e20616d6f756e740000000000000000000000600082015250565b600061187e601583611687565b915061188982611848565b602082019050919050565b600060208201905081810360008301526118ad81611871565b9050919050565b7f496e73756666696369656e74205661756c742062616c616e6365000000000000600082015250565b60006118ea601a83611687565b91506118f5826118b4565b602082019050919050565b60006020820190508181036000830152611919816118dd565b9050919050565b60006040820190506119356000830185611521565b611942602083018461161b565b9392505050565b600081519050611958816114c8565b92915050565b60006020828403121561197457611973611272565b5b600061198284828501611949565b91505092915050565b60006060820190506119a06000830186611521565b6119ad6020830185611521565b6119ba604083018461161b565b949350505050565b60006040820190506119d76000830185611521565b6119e46020830184611432565b9392505050565b600081519050919050565b600081905092915050565b60005b83811015611a1f578082015181840152602081019050611a04565b60008484015250505050565b6000611a36826119eb565b611a4081856119f6565b9350611a50818560208601611a01565b80840191505092915050565b6000611a688284611a2b565b91508190509291505056fea2646970667358221220843ba612b416c04df3848a49afe9eee705ef86f0fc2798f50e4c339202747d4264736f6c63430008180033",
  "linkReferences": {},
  "deployedLinkReferences": {}
}